S0170000435353453230313050726F6A6563742E7372656345
S11300000C94F3000C9410010C9410010C94100146
S11300100C9410010C944D010C9410010C941001DB
S11300200C9410010C9410010C9410010C94100108
S11300300C9410010C9410010C9410010C941001F8
S11300400C948A0A0C9410010C9410010C94100165
S11300500C94C9090C9487090C9410010C94100198
S11300600C9410010C9410010C9410010C941001C8
S11300700C9410010C9410010C9410014865616CEF
S11300807468204261723A202538640050726573A6
S113009073206120627574746F6E20746F207374A2
S11300A061727420616761696E0047414D45204F5C
S11300B05645520043535345323031302F37323096
S11300C0312070726F6A65637420627920426F73A5
S11300D068656E67205A68616E6720343530303445
S11300E03833300041737465726F6964730053630D
S11300F06F7265733A2025386400650162015E0100
S11301005A01560152014E014A0146014201D401ED
S1130110D001CC01C801C401C001BC01B801B501C2
S1130120B101AD01A901A401A0019C0198019301B1
S11301308F018B01860182017D01780173016E01BB
S113014069016492927D6C92926D809EA0C17C92B2
S1130150924DE4A2A29D182848FF4492926D468ACB
S1130160926342FE037C92A27D868A92A2C3E0102F
S11301700E10E1C6281028C7FC021C02FDF8040278
S113018004F9FC0202FD8080FE80816492924DFE9F
S11301909098677C828A7C03FE9090617C82827D49
S11301A0FE2010FFFE403040FFFE020203FE102836
S11301B0C7040202FD82FE83FE1010FF7C82925D62
S11301C0FE909081FE929283FE82827D7C828245A3
S11301D0FE92926D7E90907F1B5B324A001B5B25E2
S11301E0643B2564480011241FBECFEFD8E0DEBF76
S11301F0CDBF11E0A0E0B1E0ECE6FFE102C0059064
S11302000D92A433B107D9F722E0A4E3B1E001C011
S11302101D92A338B207E1F70E949A070C94B40F19
S11302200C940000E8E6F0E0808182608083D99A33
S1130230ECE6F0E080818F608083109234010895B1
S11302408091340118163CF5809135016FB7F8940C
S1130250909134019230B4F021E030E091E0F90162
S1130260EB5CFE4F4081F901EC5CFE4F40839F5FE5
S1130270292F30E040913401042E000C550B241733
S113028035076CF3909134019150909334016623B7
S11302901CF4789408958FEF08951F920F920FB66F
S11302A00F9211242F933F934F935F936F937F93F8
S11302B08F939F93EF93FF9343B14F7080E090E04F
S11302C0642F70E020913401243004F59B01082E42
S11302D002C0359527950A94E2F720FF17C02091B4
S11302E0390130E0082E02C0359527950A94E2F7CB
S11302F020FD0CC0E091340121E02E0F2093340145
S11303000E2E000CFF0BEB5CFE4F808301968430B5
S11303109105C1F640933901FF91EF919F918F911F
S11303207F916F915F914F913F912F910F900FBEED
S11303300F901F90189520E1829FC00111246F70C7
S1130340862B40914A01042E000C550B14161506F9
S1130350C4F490915001891749F090E00AC0F90162
S1130360E05BFE4F2081821304C001C090E0892F1E
S113037008959F5F292F30E02417350784F38FEF0A
S113038008958FEF089520E1829FC00111246F70BA
S1130390862B40914F01042E000C550B14161506A4
S11303A0C4F490914B01891749F090E00AC0F90117
S11303B0E55BFE4F2081821304C001C090E0892FC9
S11303C008959F5F292F30E02417350784F38FEFBA
S11303D008958FEF08951F93CF93DF93182F909173
S11303E064018FEF890F482F082E000C550B292F1D
S11303F0092E000C330B2F5F3F4F24173507E4F011
S1130400D8E0D91BC82F883028F4412F6D2F80E005
S11304100E948E0581E08C0F90916401D150482F89
S1130420082E000C550B292F092E000C330B2F5FBF
S11304303F4F2417350734F767E0691B412F81E0EC
S11304400E948E05DF91CF911F91089590E0209135
S11304504A01022E000C330B821793076CF4462FCB
S1130460FC01E05BFE4F8081982F92959F7067E0BE
S1130470691B8F700E948E05089590E020914F01B2
S1130480022E000C330B821793076CF4462FFC01E9
S1130490E55BFE4F8081982F92959F7067E0691B02
S11304A08F700E948E050895CF930E94D1058FED21
S11304B00E94EB0180914A01181684F4C0E060EFB9
S11304C08C2F0E942602CF5F2C2F30E080914A01AE
S11304D0082E000C990B281739078CF380914F01D3
S11304E0181684F4C0E06FE08C2F0E943D02CF5FA9
S11304F02C2F30E080914F01082E000C990B281707
S113050039078CF3CF910895CF93882324F19091E8
S11305104F01891704F5C82F60E00E943D0281E075
S11305208C0F282F30E060914F01462F062E000CCF
S1130530550B2417350764F4F901E55BFE4F9081F0
S1130540319790838F5F282F30E024173507A4F369
S1130550615060934F01CF910895CF93DF93C09181
S11305604F01C430E4F4D091640162E08D2F0E9405
S1130570C3018F3FB1F481E08C0F80934F01EC2FC6
S1130580F0E0E55BFE4F20E1D202C001112482605D
S113059080836FE08C2F0E943D0281E003C080E0E5
S11305A001C080E0DF91CF910895AF92BF92DF92B6
S11305B0EF92FF920F931F93CF93DF9310E0689411
S11305C0EE24E3F80F2EF7E0FF2EF02D06E08CC0AA
S11305D0A12E012E000CBB08F501E55BFE4F8081C6
S11305E0C82FCF70DD24D394DC0E20E1D21204C0D6
S11305F0812F0E94840278C0D82FD295DF706D2D90
S11306008D2F0E949B018F3F09F45AC043E16E2D48
S11306106D1B8D2D0E948E0543E1BF2CBD1A6B2DE1
S113062082E08C0F0E948E0543E16B2D8C2F0E947B
S11306308E0543E1602F6D1B8D2D0E948E056D2D5F
S11306408D2F0E949B0160E00E942602812F0E9450
S113065084020E940F0CDC01CB0187709927AA2722
S1130660B078BB2354F40197A109B109886F9F6F37
S1130670AF6FBF6F0196A11DB11DC82F6FE00E941F
S11306809B018F3F31F76D2D8D2F0E949B01E82F29
S1130690880FFF0BE05BFE4F20E1C29FC0011124D5
S11306A08F6080836FE08C2F0E949B0160EF0E941B
S11306B0260281E090E00E94AE070E94DE0714C08B
S11306C060E0812F0E943D02F501E55BFE4F20E1D1
S11306D0D29FC00111246D2D6F70682B60836FE071
S11306E0812F0E943D021F5F80914F0118170CF467
S11306F06FCFDF91CF911F910F91FF90EF90DF901B
S1130700BF90AF9008950E94D50746E9469F900197
S1130710479F300D112488E893E1821B930B843F9B
S113072021E0920714F484EF91E0089581E0209190
S1130730480130914901121613060CF480E0089523
S113074027B12F6027B928B12F6028B982309105CD
S113075089F02CF4009749F0019749F0089583300B
S1130760910559F0049761F0089518B8089584E04C
S113077088B9089586E088B908958EE088B9089507
S11307808FE088B908954F925F926F927F92AF92F3
S1130790BF92CF92DF92EF92FF920F931F93CF936A
S11307A0DF9383E08093640110924F0110924A0119
S11307B000E511E00F2EF4E6AF2EF1E0BF2EF02D90
S11307C00F2EFDE04F2E512C612C712CF02D0E9428
S11307D00F0C6B017C0127E0C222DD24EE2420E80B
S11307E0F222FF2084F481E0C81AD108E108F1085C
S11307F0E8EFCE2ADD24DA94ED2CFE2CFFEFCF1A9D
S1130800DF0AEF0AFF0A0E940F0CA30192010E9463
S1130810490BC3E0C60F6C2F8C2D0E949B018F3FA8
S1130820B1F620E1C29EB0011124CF70C62BF801AD
S1130830C1938F0180914A018F5F80934A01EA1529
S1130840FB0529F684E090E09093490180934801E8
S11308500E94A0030E945402DF91CF911F910F9137
S1130860FF90EF90DF90CF90BF90AF907F906F900C
S11308705F904F9008956CE070E08AE090E00E94F1
S11308804A0A809149018F93809148018F938CE7A4
S113089090E09F938F930E94A40C0F900F900F9061
S11308A00F9008951F93CF93DF93C091640160E08C
S11308B08C2F0E949B01D82F8F3FB9F460E08FEFFB
S11308C08C0F0E949B01D82F8F3F79F460E081E068
S11308D08C0F0E949B01D82F8F3F39F461E08C2F3D
S11308E00E949B01D82F8F3FD1F11D2F60E08D2FE7
S11308F00E9426020E94B40B87709078992324F4F6
S11309000197886F9F6F0196C82F6FE00E949B012B
S11309108F3F81F7ED2FDD0FFF0BE05BFE4F80E192
S1130920C802900111242F60208360EF812F0E9460
S113093026028FEF9FEF0E94AE070E94DE07809190
S1130940480190914901019790934901809348018E
S11309500E94A0030E943B048FED0E94EB01DF91F3
S1130960CF911F910895CF93C82F80E00E94EB018F
S1130970C1110AC08091640118168CF481508093CF
S113098064010E9452040BC0C13049F48091640197
S113099087302CF48F5F809364010E9452048FEDA2
S11309A00E94EB0181E0CF910895DF92EF92FF92D4
S11309B00F931F93CF93DF930E94540200E09BC0D8
S11309C0C02F002E000CDD0BFE01E05BFE4F80818A
S11309D0E82EE694E694E694E6948F70F82E1FEFE2
S11309E0180F1F3F51F5D02E60E0802F0E94260281
S11309F00E94B40B87709078992324F40197886F30
S1130A009F6F0196182F6FE00E949B018F3F81F723
S1130A10C05BDE4F1295107F1F60188360EF8D2D31
S1130A200E9426026F2D8E2D0E949B018F3F09F498
S1130A3061C060EF0E9426025DC0612F8E2D0E946E
S1130A40C3018F3FE9F10E948402D02E60E0802F21
S1130A500E9426020E940F0CDC01CB0187709927AB
S1130A60AA27B078BB2354F40197A109B109886F70
S1130A709F6FAF6FBF6F0196A11DB11D182F6FE05F
S1130A800E94C3018F3F31F7C05BDE4F20E1129F0C
S1130A90C00111248F60888360EF8D2D0E9426028F
S1130AA06F2D8E2D0E949B018F3F19F060EF0E94E5
S1130AB0260281E090E00E94AE070E94DE071AC081
S1130AC060E0802F0E942602C05BDE4F20E1E29EA0
S1130AD0C00111241F70182B188360EF802F0E940F
S1130AE026026F2D8E2D0E949B018F3F19F060EF1F
S1130AF00E9426020F5F80914A0108170CF460CF10
S1130B000E945204DF91CF911F910F91FF90EF90BB
S1130B10DF90089580E80E941C0A08951F93CF93E4
S1130B20DF938031B0F46830A0F4142FC62FD82F8F
S1130B3081E00E94440A6C2F677080E1689F9001F5
S1130B4011248D2F8F70822B0E94440A812F0E94C2
S1130B50440ADF91CF911F9108950F931F93CF9370
S1130B60DF93803190F48B01C82F83E00E94440A04
S1130B708C2F8F700E94440AE801085F1F4F8991EF
S1130B800E94440AC017D107D1F7DF91CF911F917A
S1130B900F91089584E00E94440A82E00E94440A6E
S1130BA008958FE00E94440A08950E948A050E94D5
S1130BB0120140E060E07BE480E090E00E943409B0
S1130BC00E94640A789408950E945B0A6AE070E0C7
S1130BD08AE090E00E944A0A84EE90E09F938F930B
S1130BE00E94A40C6CE070E08AE090E00E944A0A43
S1130BF084EB90E09F938F930E94A40C0E94D105F4
S1130C000F900F900F900F9060EF81E291E00E949F
S1130C10FD070DC02FE789EA93E021508040904002
S1130C20E1F700C000000E9420018F3F29F40E94D8
S1130C300C088111EFCFE8CF08950E94C3030E94EE
S1130C405B0A0E94A5070E9420010E948209089560
S1130C502F923F924F925F926F927F928F929F92C8
S1130C60AF92BF92CF92DF92EF92FF920F931F93B6
S1130C70CF930E94DE070E943B040E947C0A4B0132
S1130C805C012B013C0110E0312C22242A9400E069
S1130C908CC00E942001C82F8F3F09F093C00E948E
S1130CA07B09882309F453C0EDE7F2E08081918148
S1130CB00E94660C311005C08B3109F47CC0922D62
S1130CC00DC0F1E03F1205C08B3509F477C0922DB9
S1130CD005C092E0391205C0982F822D943411F486
S1130CE008C0922D282F2F7D2C3409F06FC0302E90
S1130CF001C0302E11112BC0802F0E94B30427C0D5
S1130D00803241F4302E01C0302E111120C00E94D7
S1130D10AD021DC0302EC130D1F09234C1F0CC23CD
S1130D2029F0933419F08F7D823531F411110FC0FD
S1130D3081E00E94B3040BC0803549F4113021F4E2
S1130D400E94240B102F03C00E94200B11E00E946C
S1130D507C0A6B017C010E94960381110FC0D501AE
S1130D60C4018C509E4FAF4FBF4FC816D906EA0638
S1130D70FB0620F00E94D502460157010E9496030B
S1130D80811113C00E948303092E000CAA0BBB0B14
S1130D90840D951DA61DB71DC816D906EA06FB06C7
S1130DA020F00E94D504260137010E94960388236F
S1130DB009F46FCF15C033243394C9CF6894332416
S1130DC031F8C5CF833009F495CF04C0913409F0CC
S1130DD097CF9ACF823009F498CF922D822D9BCF52
S1130DE0CF911F910F91FF90EF90DF90CF90BF9024
S1130DF0AF909F908F907F906F905F904F903F90B7
S1130E002F900895AF92BF92CF92DF92EF92FF920C
S1130E100F931F93CF93DF936EE070E08AE090E02E
S1130E200E944A0A8AEA90E09F938F930E94A40C3E
S1130E306FE070E08AE090E00E944A0A8CE890E05B
S1130E409F938F930E94A40C0F900F900F900F907C
S1130E506894AA24A3F80F2EF7E0BF2EF02D0F2ECE
S1130E60F6E0CF2EF02D0F2EF9E0DF2EF02D0F2E11
S1130E70F5E0EF2EF02D4EC0C09164010A2D0C1B3D
S1130E804FE0602F80E00E948E051B2D1C1B4FE05D
S1130E90612F80E00E948E05DC2DDC1B4FE06D2F5E
S1130EA080E00E948E054FE0612F81E00E948E0554
S1130EB0FD2CFC1A43E16F2D80E00E948E0543E176
S1130EC06F2D81E00E948E0543E1602F81E00E9436
S1130ED08E0543E1602F83E00E948E0543E1612F7C
S1130EE082E00E948E0543E16D2F81E00E948E0511
S1130EF043E16D2F83E00E948E058E2D8C1BC82F3D
S1130F0043E1682F80E00E948E0543E16C2F82E06C
S1130F100E948E050E9420018F3F09F4ADCFDF911E
S1130F20CF911F910F91FF90EF90DF90CF90BF90E2
S1130F30AF9008950E94D5050E94E4050E941D0605
S1130F400E9428060E940207F9CF109265011092B0
S1130F50660110926701109268010895092E000C31
S1130F60AA0BBB0B4091650150916601609167012A
S1130F7070916801840F951FA61FB71F18161906D4
S1130F801A061B064CF48093650190936601A093A6
S1130F906701B0936801089510926501109266018B
S1130FA01092670110926801089560916501709133
S1130FB06601809167019091680108956AE070E08C
S1130FC08AE090E00E944A0A809168018F938091A0
S1130FD067018F93809166018F93809165018F9350
S1130FE08EEE90E09F938F930E94A40C0F900F902D
S1130FF00F900F900F900F900895609308019093B5
S11310003E0180933D011092400110923F011092E5
S11310103C0110923B0108950F931F93CF93DF93EC
S1131020CDB7DEB728970FB6F894DEBF0FBECDBF9D
S1131030E0913F01F0914001309781F0149110FF4D
S113104006C01092400110923F0100E06BC031963F
S1131050F0934001E0933F0100E064C0E0913B0164
S1131060F0913C01309709F449C0CF010196909367
S11310703C0180933B01E081E1110AC010923C01E4
S113108010923B0180E180933A0100E010E04AC0F5
S11310908FE98E0F8A3170F4F0E0EE0FFF1FE45BEE
S11310A0FF4F859194919093400180933F0100E01C
S11310B010E038C08FEB8E0F8A3170F4F0E0EE0F41
S11310C0FF1FE457FF4F85919491909340018093C3
S11310D03F0100E010E026C080ED8E0F8A3000F55D
S11310E0F0E0EE0FFF1FE656FF4F85919491909329
S11310F0400180933F0100E010E014C080913D0165
S113110090913E0101E0009709F000E090933C01CA
S113111080933B0110923E0110923D0110E002C009
S113112000E010E00E94CA0520910801FE013896F3
S1131130CE010196112314F4208301C01082110FF3
S11311403197E817F907B1F71982BE016F5F7F4F36
S11311508FE00E94AD0580913A01882389F0815087
S113116080933A01002311F0882311F090E003C02A
S113117091E001C091E081E0992329F080E003C06F
S11311800023A1F3F7CF28960FB6F894DEBF0FBE65
S1131190CDBFDF91CF911F910F910895CF93C82FA9
S11311A08A3019F48DE00E94CE089FB7907802C06F
S11311B0992329F180916A018F3FD1F3F894E0914A
S11311C0690181E08E0F80936901F0E0E559FE4FDB
S11311D0C08380916A018F5F80936A018091690165
S11311E08F3F11F410926901E1ECF0E0808180629C
S11311F08083992339F0789480E090E005C081E001
S113120090E002C080E090E0CF91089580917C024C
S11312108823E1F32FB72078F89480916A02309103
S11312207C0290E0831B91095AF4E0916A02809158
S11312307C02F0E0E81BF109E558FD4F80810AC00B
S1131240E0916A0280917C02F0E0E81BF109E55923
S1131250FD4F808190917C02915090937C022223D7
S113126009F0789490E008951092690110926A014F
S113127010926A0210927C0210927B024093410108
S1131280DC01CB01880F991FAA1FBB1F880F991F70
S1131290AA1FBB1F9C01AD01220F331F441F551F02
S11312A060E072E18AE790E00E94490BBA01A9016B
S11312B04F5F5F4F6F4F7F4FDB01CA011AF40196F6
S11312C0A11DB11DB595A795979587950197909305
S11312D0C5008093C400E1ECF0E088E18083808164
S11312E080688083EDE7F2E089E091E09383828374
S11312F091838083089590917C0281E0911101C0D3
S113130080E0089510926A0210927C0208951F9260
S11313100F920FB60F9211242F938F939F93EF93F5
S1131320FF9380916A01882329F1809169012091BA
S11313306A0190E0821B91095AF4E091690180915D
S11313406A01F0E0E81BF109E659FD4F90810AC0FB
S1131350E091690180916A01F0E0E81BF109E55927
S1131360FE4F908180916A01815080936A0190932D
S1131370C60005C0E1ECF0E080818F7D8083FF91A1
S1131380EF919F918F912F910F900FBE0F901F900F
S113139018951F920F920FB60F9211242F933F931B
S11313A04F935F936F937F938F939F93AF93BF9369
S11313B0CF93EF93FF93C091C6008091410188239E
S11313C049F080916A018F3F29F060E070E08C2F32
S11313D00E94CE0880917C02803120F081E08093CD
S11313E07B0218C0CD3009F4CAE0E0916A0281E0C2
S11313F08E0F80936A02F0E0E559FD4FC08380911F
S11314007C028F5F80937C0280916A02803111F4A8
S113141010926A02FF91EF91CF91BF91AF919F918A
S11314208F917F916F915F914F913F912F910F9089
S11314300FBE0F901F90189594B1906B94B92C9A8D
S113144090E59CBD883021F0803211F0823019F48F
S113145091E09DBD01C01DBC803269F028F4883044
S113146071F0803161F00EC0803429F0803851F47D
S11314708CB581608CBD8CB582608CBD03C08CB58D
S113148081608CBD2C9808958EBD0DB407FEFDCFF0
S11314908EB508959F938F937F936F938DED91E015
S11314A09F938F930E94A40C0F900F900F900F9016
S11314B00F900F90089588ED91E09F938F930E9471
S11314C0A40C0F900F9008951092440110924501BE
S11314D0109246011092470116BC8CE787BD82E04A
S11314E084BD83E085BDEEE6F0E080818260808388
S11314F085B3827085BB08952FB7F8946091440139
S113150070914501809146019091470122230CF48A
S1131510789408951F920F920FB60F9211248F9210
S11315209F92AF92BF92CF92DF92EF92FF922F934E
S11315303F934F935F936F937F938F939F93AF9357
S1131540BF93EF93FF9380914201811113C0809167
S1131550440190914501A0914601B0914701019643
S1131560A11DB11D8093440190934501A0934601B0
S1131570B09347018FEF81B980E28AB90E94D50701
S11315802AE030E040E050E00E94270B6B017C0130
S11315900E94D5074B015C010E94D5076A30710592
S11315A08105910538F41BB8F601E95EFE4F808190
S11315B082B927C080914301811108C012B81BB8B9
S11315C0F601E95EFE4F808182B91BC012B880E249
S11315D08BB90F2EFAE0CF2ED12CE12CF12CF02D6B
S11315E0C501B401A70196010E94270BCA01B901E4
S11315F0A70196010E94270BFB01E95EFE4F808143
S113160082B99091430181E0891B80934301FF914A
S1131610EF91BF91AF919F918F917F916F915F9166
S11316204F913F912F91FF90EF90DF90CF90BF901B
S1131630AF909F908F900F900FBE0F901F901895B2
S113164081E0809342010895109242010895A1E23D
S11316501A2EAA1BBB1BFD010DC0AA1FBB1FEE1F28
S1131660FF1FA217B307E407F50720F0A21BB30B73
S1131670E40BF50B661F771F881F991F1A9469F7EF
S113168060957095809590959B01AC01BD01CF014B
S11316900895052E97FB1EF400940E94600B57FDDD
S11316A007D00E94270B07FC03D04EF40C94600B68
S11316B050954095309521953F4F4F4F5F4F08957A
S11316C090958095709561957F4F8F4F9F4F0895AA
S11316D08F929F92AF92BF92CF92DF92EF92FF923E
S11316E0CF93DF93EC01688179818A819B816115B5
S11316F071058105910521F464E279ED8BE597E0AC
S11317002DE133EF41E050E00E94490B49015A01B9
S11317109B01AC01A7EAB1E40E945B0F6B017C0161
S1131720ACEEB4EFA50194010E94690FDC01CB017A
S11317308C0D9D1DAE1DBF1DB7FF03C00197A109F0
S1131740B04888839983AA83BB839F77DF91CF9125
S1131750FF90EF90DF90CF90BF90AF909F908F90CD
S113176008950E94680B089580E091E00E94680B40
S11317700895A0E0B0E08093000190930101A0934C
S11317800201B093030108958F929F92AF92BF928A
S1131790CF92DF92EF92FF92CF93DF93EC016881B7
S11317A079818A819B81611571058105910521F4F7
S11317B064E279ED8BE597E02DE133EF41E050E011
S11317C00E94490B49015A019B01AC01A7EAB1E40B
S11317D00E945B0F6B017C01ACEEB4EFA501940198
S11317E00E94690FDC01CB018C0D9D1DAE1DBF1D38
S11317F0B7FF03C00197A109B04888839983AA83DE
S1131800BB83BC01CD019F77DF91CF91FF90EF9017
S1131810DF90CF90BF90AF909F908F9008958F925C
S11318209F92AF92BF92CF92DF92EF92FF9260911C
S113183004017091050180910601909107016115E1
S113184071058105910521F464E279ED8BE597E05A
S11318502DE133EF41E050E00E94490B49015A0168
S11318609B01AC01A7EAB1E40E945B0F6B017C0110
S1131870ACEEB4EFA50194010E94690FDC01CB0129
S11318808C0D9D1DAE1DBF1DB7FF03C00197A1099F
S1131890B0488093040190930501A0930601B0938E
S11318A00701BC01CD019F77FF90EF90DF90CF90AF
S11318B0BF90AF909F908F900895609304017093B0
S11318C0050180930601909307010895CF93DF9358
S11318D0EC012B8120FF33C026FF0AC02F7B2B8312
S11318E08E819F8101969F838E838A8190E029C097
S11318F022FF0FC0E881F9818081082E000C990B2A
S1131900009719F420622B831AC03196F983E88377
S11319100EC0EA85FB85099597FF09C02B810196C6
S113192011F080E201C080E1822B8B8308C02E81FC
S11319303F812F5F3F4F3F832E83992702C08FEF54
S11319409FEFDF91CF910895A0E0B0E0EAEAFCE0D8
S11319500C947C0FAE01495F5F4FDA016D917D916C
S1131960AD010DE712E0F80182819381DC01139649
S11319702C911397286013962C930E94CA0CD801BB
S11319801296ED91FC9113972381277F2383E4E042
S11319900C94980FABE0B0E0E0EDFCE00C946E0F1B
S11319A06C017B018A01FC0117821682838181FF0D
S11319B0CCC1CE0101963C01F6019381F70193FD60
S11319C0859193FF81917F01882309F4BAC18532FF
S11319D039F493FD859193FF81917F01853229F438
S11319E0B60190E00E94C10EE7CF912C212C312C3E
S11319F0FFE1F315D8F08B3279F038F4803279F0C6
S1131A008332A1F4232D20611DC08D3261F0803317
S1131A1069F4232D216016C0832D8260382EE32DB6
S1131A20E4603E2E2AC0F32DF8601DC037FC2DC0A3
S1131A3020ED280F2A3040F08E32B9F436FC81C1F3
S1131A40232D2064322E19C036FE06C08AE0989EEB
S1131A50200D1124922E11C0EAE02E9E200D112497
S1131A60222EF32DF0623F2E08C08C3621F4832DF4
S1131A708068382E02C0883641F4F70193FD8591C1
S1131A8093FF81917F018111B3CF982F9F7D95544E
S1131A90933028F40C5F1F4F9FE399830DC0833666
S1131AA031F0833771F0833509F059C021C0F80152
S1131AB0808189830E5F1F4F88248394912C530166
S1131AC013C02801F2E04F0E511CF801A080B18030
S1131AD036FE03C0692D70E002C06FEF7FEFC501D1
S1131AE00E94B60E4C018201F32DFF773F2E16C0E3
S1131AF0280122E0420E511CF801A080B18036FE7C
S1131B0003C0692D70E002C06FEF7FEFC5010E9432
S1131B10AB0E4C01F32DF0683F2E820133FC1BC049
S1131B20822D90E088169906B0F4B60180E290E028
S1131B300E94C10E2A94F4CFF50137FC859137FE3B
S1131B4081915F01B60190E00E94C10E21102A9498
S1131B5021E0821A91088114910471F7E8C0843657
S1131B6011F0893641F5F80137FE07C060817181B3
S1131B70828193810C5F1F4F08C060817181072EA1
S1131B80000C880B990B0E5F1F4FF32DFF763F2E31
S1131B9097FF09C090958095709561957F4F8F4F01
S1131BA09F4FF0683F2E2AE030E0A3010E94FD0E13
S1131BB0882E861845C0853731F4232D2F7EB22E0A
S1131BC02AE030E025C0932D997FB92E8F36C1F0DD
S1131BD018F4883579F0B5C0803719F0883721F0CA
S1131BE0B0C0E92FE061BE2EB4FE0DC0FB2DF46041
S1131BF0BF2E09C034FE0AC0292F2660B22E06C0AB
S1131C0028E030E005C020E130E002C020E132E00D
S1131C10F801B7FE07C060817181828193810C5FF6
S1131C201F4F06C06081718180E090E00E5F1F4FFE
S1131C30A3010E94FD0E882E8618FB2DFF773F2EF0
S1131C4036FE0DC0232D2E7FA22E891458F434FEA7
S1131C500BC032FC09C0832D8E7EA82E05C0B82C83
S1131C60A32C03C0B82C01C0B92CA4FE0FC0FE01E4
S1131C70E80DF11D8081803321F49A2D997EA92EDF
S1131C8009C0A2FE06C0B394B39404C08A2D86781A
S1131C9009F0B394A3FC11C0A0FE06C0B21488F4EA
S1131CA0280C922C9B180EC0B21460F4B60180E28A
S1131CB090E00E94C10EB394F7CFB21418F42B181D
S1131CC002C0982C212CA4FE10C0B60180E390E041
S1131CD00E94C10EA2FE17C0A1FC03C088E790E0D9
S1131CE002C088E590E0B6010CC08A2D867859F0D0
S1131CF0A1FE02C08BE201C080E2A7FC8DE2B60126
S1131D0090E00E94C10E891438F4B60180E390E09B
S1131D100E94C10E9A94F7CF8A94F301E80DF11D45
S1131D208081B60190E00E94C10E8110F5CF22207F
S1131D3009F442CEB60180E290E00E94C10E2A94DA
S1131D40F6CFF6018681978102C08FEF9FEF2B9625
S1131D50E2E10C948A0FFC0105906150704001107F
S1131D60D8F7809590958E0F9F1F0895FC016150C0
S1131D70704001900110D8F7809590958E0F9F1FA9
S1131D8008950F931F93CF93DF93FB01238121FDCC
S1131D9003C08FEF9FEF2CC022FF16C046815781EE
S1131DA0248135814217530744F4A081B1819D01F8
S1131DB02F5F3F4F318320838C93268137812F5FA0
S1131DC03F4F3783268314C08B01EC01FB01008451
S1131DD0F185E02D0995892BE1F6D80116968D91B0
S1131DE09C911797019617969C938E931697CE0104
S1131DF0DF91CF911F910F910895FA01AA272830FE
S1131E0051F1203181F1E8946F936E7F6E5F7F4FC3
S1131E108F4F9F4FAF4FB1E03ED0B4E03CD0670F3F
S1131E20781F891F9A1FA11D680F791F8A1F911D92
S1131E30A11D6A0F711D811D911DA11D20D009F4E2
S1131E4068943F912AE0269F11243019305D319324
S1131E50DEF6CF010895462F4770405D4193B3E00D
S1131E600FD0C9F7F6CF462F4F70405D4A3318F0B4
S1131E70495D31FD4052419302D0A9F7EACFB4E065
S1131E80A6959795879577956795BA95C9F700971D
S1131E906105710508959B01AC010A2E06945795BE
S1131EA0479537952795BA95C9F7620F731F841F15
S1131EB0951FA01D08950E94A50FA59F900DB49F86
S1131EC0900DA49F800D911D11240895B7FF0C94CB
S1131ED05B0F0E945B0F821B930B08952F923F921E
S1131EE04F925F926F927F928F929F92AF92BF9226
S1131EF0CF92DF92EF92FF920F931F93CF93DF93D2
S1131F00CDB7DEB7CA1BDB0B0FB6F894DEBF0FBE2E
S1131F10CDBF09942A88398848885F846E847D847B
S1131F208C849B84AA84B984C884DF80EE80FD807D
S1131F300C811B81AA81B981CE0FD11D0FB6F894F3
S1131F40DEBF0FBECDBFED010895A29FB001B39FC8
S1131F50C001A39F700D811D1124911DB29F700DAE
S10F1F60811D1124911D0895F894FFCFF9
S1131F6C01000000010000000F000000030000004D
S1131F7C00CE08060900003F065B4F666D7D077FA7
S1131F8C6F41535445524F49445320343530303407
S1071F9C38333000A2
S9030000FC
